{
  "transactions": [
    {
      "hash": "0x11da226818506298b0c27805ab0a8c3b514a3b9c8087ed2640ba4c1da7e8562f",
      "transactionType": "CALL",
      "contractName": null,
      "contractAddress": "0x01fdfd18995db33a94702c78916ae7a488e0ea4f",
      "function": "createSubscription()",
      "arguments": [],
      "transaction": {
        "from": "0xf39fd6e51aad88f6f4ce6ab8827279cfffb92266",
        "to": "0x01fdfd18995db33a94702c78916ae7a488e0ea4f",
        "gas": "0x18f99",
        "value": "0x0",
        "input": "0xa21a23e4",
        "nonce": "0x16",
        "chainId": "0x539"
      },
      "additionalContracts": [],
      "isFixedGasLimit": false
    },
    {
      "hash": "0xc452b63402b3cfe97809be8d1e3b7b621d0c07ec7f079c261d7fa30dca7a7f87",
      "transactionType": "CALL",
      "contractName": null,
      "contractAddress": "0x36f44be64e35b0b77df5978dc71b7870c81597ee",
      "function": "transferAndCall(address,uint256,bytes)",
      "arguments": [
        "0x01fdfD18995db33A94702c78916aE7a488E0EA4F",
        "3000000000000000000",
        "0x0000000000000000000000000000000000000000000000000000000000000008"
      ],
      "transaction": {
        "from": "0xf39fd6e51aad88f6f4ce6ab8827279cfffb92266",
        "to": "0x36f44be64e35b0b77df5978dc71b7870c81597ee",
        "gas": "0x14804",
        "value": "0x0",
        "input": "0x4000aea000000000000000000000000001fdfd18995db33a94702c78916ae7a488e0ea4f00000000000000000000000000000000000000000000000029a2241af62c0000000000000000000000000000000000000000000000000000000000000000006000000000000000000000000000000000000000000000000000000000000000200000000000000000000000000000000000000000000000000000000000000008",
        "nonce": "0x17",
        "chainId": "0x539"
      },
      "additionalContracts": [],
      "isFixedGasLimit": false
    },
    {
      "hash": "0xa8022398fb93db08a2e17516817e07a2881ae29f728d890adb761ca67647a7ba",
      "transactionType": "CALL",
      "contractName": null,
      "contractAddress": "0x01fdfd18995db33a94702c78916ae7a488e0ea4f",
      "function": "addConsumer(uint64,address)",
      "arguments": [
        "8",
        "0x0000000000000000000000000000000000000000"
      ],
      "transaction": {
        "from": "0xf39fd6e51aad88f6f4ce6ab8827279cfffb92266",
        "to": "0x01fdfd18995db33a94702c78916ae7a488e0ea4f",
        "gas": "0x1d715",
        "value": "0x0",
        "input": "0x7341c10c00000000000000000000000000000000000000000000000000000000000000080000000000000000000000000000000000000000000000000000000000000000",
        "nonce": "0x18",
        "chainId": "0x539"
      },
      "additionalContracts": [],
      "isFixedGasLimit": false
    }
  ],
  "receipts": [
    {
      "status": "0x1",
      "cumulativeGasUsed": "0x1113b",
      "logs": [
        {
          "address": "0x01fdfd18995db33a94702c78916ae7a488e0ea4f",
          "topics": [
            "0x464722b4166576d3dcbba877b999bc35cf911f4eaf434b7eba68fa113951d0bf",
            "0x0000000000000000000000000000000000000000000000000000000000000008"
          ],
          "data": "0x000000000000000000000000f39fd6e51aad88f6f4ce6ab8827279cfffb92266",
          "blockHash": "0xd3dbd2fd64b29f2d4ab2604faa531d1e757ab9b0fea0e7df9277abf908247f27",
          "blockNumber": "0x24",
          "transactionHash": "0x11da226818506298b0c27805ab0a8c3b514a3b9c8087ed2640ba4c1da7e8562f",
          "transactionIndex": "0x0",
          "logIndex": "0x0",
          "removed": false
        }
      ],
      "logsBloom": "0x00000000000000000000010000000010000000000000000000000000000000000100000000000000000000000000000000000000000080000000000000000000000000000000000000000000000000000000000000000000000000000000000000000000000000000000000000000000000000000000000000000000000000000080000000000000000000000000000000000000000000000000000000000000000000000000002000000000000000000000000000000000000000000000000040000000000000200000000000000000000000000000000000000000000000000000000000000000000000000000000000000000000000400000000000000000",
      "type": "0x2",
      "transactionHash": "0x11da226818506298b0c27805ab0a8c3b514a3b9c8087ed2640ba4c1da7e8562f",
      "transactionIndex": "0x0",
      "blockHash": "0xd3dbd2fd64b29f2d4ab2604faa531d1e757ab9b0fea0e7df9277abf908247f27",
      "blockNumber": "0x24",
      "gasUsed": "0x1113b",
      "effectiveGasPrice": "0x7459a9c2",
      "from": "0xf39fd6e51aad88f6f4ce6ab8827279cfffb92266",
      "to": "0x01fdfd18995db33a94702c78916ae7a488e0ea4f",
      "contractAddress": null
    },
    {
      "status": "0x1",
      "cumulativeGasUsed": "0xe049",
      "logs": [
        {
          "address": "0x36f44be64e35b0b77df5978dc71b7870c81597ee",
          "topics": [
            "0xddf252ad1be2c89b69c2b068fc378daa952ba7f163c4a11628f55a4df523b3ef",
            "0x000000000000000000000000f39fd6e51aad88f6f4ce6ab8827279cfffb92266",
            "0x00000000000000000000000001fdfd18995db33a94702c78916ae7a488e0ea4f"
          ],
          "data": "0x00000000000000000000000000000000000000000000000029a2241af62c0000",
          "blockHash": "0x05d2f577485350f48046a513298f85007926f0416b3e48ea2e9b7a63634e3fab",
          "blockNumber": "0x25",
          "transactionHash": "0xc452b63402b3cfe97809be8d1e3b7b621d0c07ec7f079c261d7fa30dca7a7f87",
          "transactionIndex": "0x0",
          "logIndex": "0x0",
          "removed": false
        },
        {
          "address": "0x36f44be64e35b0b77df5978dc71b7870c81597ee",
          "topics": [
            "0xe19260aff97b920c7df27010903aeb9c8d2be5d310a2c67824cf3f15396e4c16",
            "0x000000000000000000000000f39fd6e51aad88f6f4ce6ab8827279cfffb92266",
            "0x00000000000000000000000001fdfd18995db33a94702c78916ae7a488e0ea4f"
          ],
          "data": "0x00000000000000000000000000000000000000000000000029a2241af62c0000000000000000000000000000000000000000000000000000000000000000004000000000000000000000000000000000000000000000000000000000000000200000000000000000000000000000000000000000000000000000000000000008",
          "blockHash": "0x05d2f577485350f48046a513298f85007926f0416b3e48ea2e9b7a63634e3fab",
          "blockNumber": "0x25",
          "transactionHash": "0xc452b63402b3cfe97809be8d1e3b7b621d0c07ec7f079c261d7fa30dca7a7f87",
          "transactionIndex": "0x0",
          "logIndex": "0x1",
          "removed": false
        },
        {
          "address": "0x01fdfd18995db33a94702c78916ae7a488e0ea4f",
          "topics": [
            "0xd39ec07f4e209f627a4c427971473820dc129761ba28de8906bd56f57101d4f8",
            "0x0000000000000000000000000000000000000000000000000000000000000008"
          ],
          "data": "0x000000000000000000000000000000000000000000000000000000000000000000000000000000000000000000000000000000000000000029a2241af62c0000",
          "blockHash": "0x05d2f577485350f48046a513298f85007926f0416b3e48ea2e9b7a63634e3fab",
          "blockNumber": "0x25",
          "transactionHash": "0xc452b63402b3cfe97809be8d1e3b7b621d0c07ec7f079c261d7fa30dca7a7f87",
          "transactionIndex": "0x0",
          "logIndex": "0x2",
          "removed": false
        }
      ],
      "logsBloom": "0x00000000000000000000000000000010000000000000000200000000020000000000000000000000000000000000000000000000000080000000000000000000000000000000000000000008000000000000000000000400080020000000000000000000800000000000000100000000000000000000000000000010000000800080000000000000000000000000000010000020000000000000000000000000000000000000002000000000000000000000000000000000000400002000000040000002000010200000000000000000000000002000000000000000000000000000000000000000000000000000000000000000000000400000000000000000",
      "type": "0x2",
      "transactionHash": "0xc452b63402b3cfe97809be8d1e3b7b621d0c07ec7f079c261d7fa30dca7a7f87",
      "transactionIndex": "0x0",
      "blockHash": "0x05d2f577485350f48046a513298f85007926f0416b3e48ea2e9b7a63634e3fab",
      "blockNumber": "0x25",
      "gasUsed": "0xe049",
      "effectiveGasPrice": "0x744432e6",
      "from": "0xf39fd6e51aad88f6f4ce6ab8827279cfffb92266",
      "to": "0x36f44be64e35b0b77df5978dc71b7870c81597ee",
      "contractAddress": null
    },
    {
      "status": "0x1",
      "cumulativeGasUsed": "0x1550f",
      "logs": [
        {
          "address": "0x01fdfd18995db33a94702c78916ae7a488e0ea4f",
          "topics": [
            "0x43dc749a04ac8fb825cbd514f7c0e13f13bc6f2ee66043b76629d51776cff8e0",
            "0x0000000000000000000000000000000000000000000000000000000000000008"
          ],
          "data": "0x0000000000000000000000000000000000000000000000000000000000000000",
          "blockHash": "0xe9eeedc712fa0ca5f699776d862d501f27a61ac0a8af49c2d806855ca167bfca",
          "blockNumber": "0x26",
          "transactionHash": "0xa8022398fb93db08a2e17516817e07a2881ae29f728d890adb761ca67647a7ba",
          "transactionIndex": "0x0",
          "logIndex": "0x0",
          "removed": false
        }
      ],
      "logsBloom": "0x00000000000000000000000000000010000000000000000000000000000000000000000000000000000000000000000000000000000080000000000000000000000000000000000000000000000000000000000000000000000000000000000000000000000080000000000000000000000000000000000000000000000000000080000000000000000000000000000000000000000000000000000000000000000000000000002000000080000000000000000000000000000000000000000040000000000000000000000000000000000000000000000000020000000000000000000000000000000000000000000000000000000000400000000000000000",
      "type": "0x2",
      "transactionHash": "0xa8022398fb93db08a2e17516817e07a2881ae29f728d890adb761ca67647a7ba",
      "transactionIndex": "0x0",
      "blockHash": "0xe9eeedc712fa0ca5f699776d862d501f27a61ac0a8af49c2d806855ca167bfca",
      "blockNumber": "0x26",
      "gasUsed": "0x1550f",
      "effectiveGasPrice": "0x743163a8",
      "from": "0xf39fd6e51aad88f6f4ce6ab8827279cfffb92266",
      "to": "0x01fdfd18995db33a94702c78916ae7a488e0ea4f",
      "contractAddress": null
    }
  ],
  "libraries": [],
  "pending": [],
  "returns": {
    "0": {
      "internal_type": "contract FunctionsConsumer",
      "value": "0x0000000000000000000000000000000000000000"
    },
    "1": {
      "internal_type": "contract HelperConfig",
      "value": "0xC7f2Cf4845C6db0e1a1e91ED41Bcd0FcC1b0E141"
    }
  },
  "timestamp": 1743039705,
  "chain": 1337,
  "commit": "12998e8"
}