{
  "transactions": [
    {
      "hash": "0xfe47df7108a57b33d616ce55592703e4023f5ff96bec711e75671e5615844cd8",
      "transactionType": "CALL",
      "contractName": null,
      "contractAddress": "0x01fdfd18995db33a94702c78916ae7a488e0ea4f",
      "function": "createSubscription()",
      "arguments": [],
      "transaction": {
        "from": "0xf39fd6e51aad88f6f4ce6ab8827279cfffb92266",
        "to": "0x01fdfd18995db33a94702c78916ae7a488e0ea4f",
        "gas": "0x18f99",
        "value": "0x0",
        "input": "0xa21a23e4",
        "nonce": "0x12",
        "chainId": "0x539"
      },
      "additionalContracts": [],
      "isFixedGasLimit": false
    },
    {
      "hash": "0x243b3f01bae7ef753b759269be85b5146752bf774425d68b9ff018d57cc7a2df",
      "transactionType": "CALL",
      "contractName": null,
      "contractAddress": "0x36f44be64e35b0b77df5978dc71b7870c81597ee",
      "function": "transferAndCall(address,uint256,bytes)",
      "arguments": [
        "0x01fdfD18995db33A94702c78916aE7a488E0EA4F",
        "3000000000000000000",
        "0x0000000000000000000000000000000000000000000000000000000000000006"
      ],
      "transaction": {
        "from": "0xf39fd6e51aad88f6f4ce6ab8827279cfffb92266",
        "to": "0x36f44be64e35b0b77df5978dc71b7870c81597ee",
        "gas": "0x14804",
        "value": "0x0",
        "input": "0x4000aea000000000000000000000000001fdfd18995db33a94702c78916ae7a488e0ea4f00000000000000000000000000000000000000000000000029a2241af62c0000000000000000000000000000000000000000000000000000000000000000006000000000000000000000000000000000000000000000000000000000000000200000000000000000000000000000000000000000000000000000000000000006",
        "nonce": "0x13",
        "chainId": "0x539"
      },
      "additionalContracts": [],
      "isFixedGasLimit": false
    }
  ],
  "receipts": [
    {
      "status": "0x1",
      "cumulativeGasUsed": "0x1113b",
      "logs": [
        {
          "address": "0x01fdfd18995db33a94702c78916ae7a488e0ea4f",
          "topics": [
            "0x464722b4166576d3dcbba877b999bc35cf911f4eaf434b7eba68fa113951d0bf",
            "0x0000000000000000000000000000000000000000000000000000000000000006"
          ],
          "data": "0x000000000000000000000000f39fd6e51aad88f6f4ce6ab8827279cfffb92266",
          "blockHash": "0x5d033fab36011cde0bd05e3c1dfc3756b6d897389cd7dce27f196a92a9f8dd8f",
          "blockNumber": "0x20",
          "transactionHash": "0xfe47df7108a57b33d616ce55592703e4023f5ff96bec711e75671e5615844cd8",
          "transactionIndex": "0x0",
          "logIndex": "0x0",
          "removed": false
        }
      ],
      "logsBloom": "0x00000000000000000000010000000010000000000000000000000000000000000100000000000000000000000000000000000000000400000000000000000000000000000000000000000000000000000000000000000000000000000000000000000000000000000000000000000000000000000000000000000000000000000000000400000000000000000000000000000000000000000000000000000000000000000000002000000000000000000000000000000000000000080000000000000000000000200000000000000000000000000000000000000000000000000000000000000000000000000000000000000000000000400000000000000000",
      "type": "0x2",
      "transactionHash": "0xfe47df7108a57b33d616ce55592703e4023f5ff96bec711e75671e5615844cd8",
      "transactionIndex": "0x0",
      "blockHash": "0x5d033fab36011cde0bd05e3c1dfc3756b6d897389cd7dce27f196a92a9f8dd8f",
      "blockNumber": "0x20",
      "gasUsed": "0x1113b",
      "effectiveGasPrice": "0x74d2bda9",
      "from": "0xf39fd6e51aad88f6f4ce6ab8827279cfffb92266",
      "to": "0x01fdfd18995db33a94702c78916ae7a488e0ea4f",
      "contractAddress": null
    },
    {
      "status": "0x1",
      "cumulativeGasUsed": "0xe049",
      "logs": [
        {
          "address": "0x36f44be64e35b0b77df5978dc71b7870c81597ee",
          "topics": [
            "0xddf252ad1be2c89b69c2b068fc378daa952ba7f163c4a11628f55a4df523b3ef",
            "0x000000000000000000000000f39fd6e51aad88f6f4ce6ab8827279cfffb92266",
            "0x00000000000000000000000001fdfd18995db33a94702c78916ae7a488e0ea4f"
          ],
          "data": "0x00000000000000000000000000000000000000000000000029a2241af62c0000",
          "blockHash": "0x76d9ec63c44af6c0e52e5ce6403b12c1525e4bd4e81290f11833bd05a534f06c",
          "blockNumber": "0x21",
          "transactionHash": "0x243b3f01bae7ef753b759269be85b5146752bf774425d68b9ff018d57cc7a2df",
          "transactionIndex": "0x0",
          "logIndex": "0x0",
          "removed": false
        },
        {
          "address": "0x36f44be64e35b0b77df5978dc71b7870c81597ee",
          "topics": [
            "0xe19260aff97b920c7df27010903aeb9c8d2be5d310a2c67824cf3f15396e4c16",
            "0x000000000000000000000000f39fd6e51aad88f6f4ce6ab8827279cfffb92266",
            "0x00000000000000000000000001fdfd18995db33a94702c78916ae7a488e0ea4f"
          ],
          "data": "0x00000000000000000000000000000000000000000000000029a2241af62c0000000000000000000000000000000000000000000000000000000000000000004000000000000000000000000000000000000000000000000000000000000000200000000000000000000000000000000000000000000000000000000000000006",
          "blockHash": "0x76d9ec63c44af6c0e52e5ce6403b12c1525e4bd4e81290f11833bd05a534f06c",
          "blockNumber": "0x21",
          "transactionHash": "0x243b3f01bae7ef753b759269be85b5146752bf774425d68b9ff018d57cc7a2df",
          "transactionIndex": "0x0",
          "logIndex": "0x1",
          "removed": false
        },
        {
          "address": "0x01fdfd18995db33a94702c78916ae7a488e0ea4f",
          "topics": [
            "0xd39ec07f4e209f627a4c427971473820dc129761ba28de8906bd56f57101d4f8",
            "0x0000000000000000000000000000000000000000000000000000000000000006"
          ],
          "data": "0x000000000000000000000000000000000000000000000000000000000000000000000000000000000000000000000000000000000000000029a2241af62c0000",
          "blockHash": "0x76d9ec63c44af6c0e52e5ce6403b12c1525e4bd4e81290f11833bd05a534f06c",
          "blockNumber": "0x21",
          "transactionHash": "0x243b3f01bae7ef753b759269be85b5146752bf774425d68b9ff018d57cc7a2df",
          "transactionIndex": "0x0",
          "logIndex": "0x2",
          "removed": false
        }
      ],
      "logsBloom": "0x00000000000000000000000000000010000000000000000200000000020000000000000000000000000000000000000000000000000400000000000000000000000000000000000000000008000000000000000000000400080020000000000000000000800000000000000100000000000000000000000000000010000000800000000400000000000000000000000010000020000000000000000000000000000000000000002000000000000000000000000000000000000400082000000000000002000010200000000000000000000000002000000000000000000000000000000000000000000000000000000000000000000000400000000000000000",
      "type": "0x2",
      "transactionHash": "0x243b3f01bae7ef753b759269be85b5146752bf774425d68b9ff018d57cc7a2df",
      "transactionIndex": "0x0",
      "blockHash": "0x76d9ec63c44af6c0e52e5ce6403b12c1525e4bd4e81290f11833bd05a534f06c",
      "blockNumber": "0x21",
      "gasUsed": "0xe049",
      "effectiveGasPrice": "0x74ae3662",
      "from": "0xf39fd6e51aad88f6f4ce6ab8827279cfffb92266",
      "to": "0x36f44be64e35b0b77df5978dc71b7870c81597ee",
      "contractAddress": null
    }
  ],
  "libraries": [],
  "pending": [],
  "returns": {
    "0": {
      "internal_type": "contract FunctionsConsumer",
      "value": "0x0000000000000000000000000000000000000000"
    },
    "1": {
      "internal_type": "contract HelperConfig",
      "value": "0xC7f2Cf4845C6db0e1a1e91ED41Bcd0FcC1b0E141"
    }
  },
  "timestamp": 1743039658,
  "chain": 1337,
  "commit": "12998e8"
}